{
  "contractName": "ERC721Enumerable",
  "abi": [
    {
      "constant": true,
      "inputs": [
        {
          "name": "interfaceId",
          "type": "bytes4"
        }
      ],
      "name": "supportsInterface",
      "outputs": [
        {
          "name": "",
          "type": "bool"
        }
      ],
      "payable": false,
      "stateMutability": "view",
      "type": "function"
    },
    {
      "constant": true,
      "inputs": [
        {
          "name": "tokenId",
          "type": "uint256"
        }
      ],
      "name": "getApproved",
      "outputs": [
        {
          "name": "",
          "type": "address"
        }
      ],
      "payable": false,
      "stateMutability": "view",
      "type": "function"
    },
    {
      "constant": false,
      "inputs": [
        {
          "name": "to",
          "type": "address"
        },
        {
          "name": "tokenId",
          "type": "uint256"
        }
      ],
      "name": "approve",
      "outputs": [],
      "payable": false,
      "stateMutability": "nonpayable",
      "type": "function"
    },
    {
      "constant": false,
      "inputs": [
        {
          "name": "from",
          "type": "address"
        },
        {
          "name": "to",
          "type": "address"
        },
        {
          "name": "tokenId",
          "type": "uint256"
        }
      ],
      "name": "transferFrom",
      "outputs": [],
      "payable": false,
      "stateMutability": "nonpayable",
      "type": "function"
    },
    {
      "constant": false,
      "inputs": [
        {
          "name": "from",
          "type": "address"
        },
        {
          "name": "to",
          "type": "address"
        },
        {
          "name": "tokenId",
          "type": "uint256"
        }
      ],
      "name": "safeTransferFrom",
      "outputs": [],
      "payable": false,
      "stateMutability": "nonpayable",
      "type": "function"
    },
    {
      "constant": true,
      "inputs": [
        {
          "name": "tokenId",
          "type": "uint256"
        }
      ],
      "name": "ownerOf",
      "outputs": [
        {
          "name": "",
          "type": "address"
        }
      ],
      "payable": false,
      "stateMutability": "view",
      "type": "function"
    },
    {
      "constant": true,
      "inputs": [
        {
          "name": "owner",
          "type": "address"
        }
      ],
      "name": "balanceOf",
      "outputs": [
        {
          "name": "",
          "type": "uint256"
        }
      ],
      "payable": false,
      "stateMutability": "view",
      "type": "function"
    },
    {
      "constant": false,
      "inputs": [
        {
          "name": "to",
          "type": "address"
        },
        {
          "name": "approved",
          "type": "bool"
        }
      ],
      "name": "setApprovalForAll",
      "outputs": [],
      "payable": false,
      "stateMutability": "nonpayable",
      "type": "function"
    },
    {
      "constant": false,
      "inputs": [
        {
          "name": "from",
          "type": "address"
        },
        {
          "name": "to",
          "type": "address"
        },
        {
          "name": "tokenId",
          "type": "uint256"
        },
        {
          "name": "_data",
          "type": "bytes"
        }
      ],
      "name": "safeTransferFrom",
      "outputs": [],
      "payable": false,
      "stateMutability": "nonpayable",
      "type": "function"
    },
    {
      "constant": true,
      "inputs": [
        {
          "name": "owner",
          "type": "address"
        },
        {
          "name": "operator",
          "type": "address"
        }
      ],
      "name": "isApprovedForAll",
      "outputs": [
        {
          "name": "",
          "type": "bool"
        }
      ],
      "payable": false,
      "stateMutability": "view",
      "type": "function"
    },
    {
      "inputs": [],
      "payable": false,
      "stateMutability": "nonpayable",
      "type": "constructor"
    },
    {
      "anonymous": false,
      "inputs": [
        {
          "indexed": true,
          "name": "from",
          "type": "address"
        },
        {
          "indexed": true,
          "name": "to",
          "type": "address"
        },
        {
          "indexed": true,
          "name": "tokenId",
          "type": "uint256"
        }
      ],
      "name": "Transfer",
      "type": "event"
    },
    {
      "anonymous": false,
      "inputs": [
        {
          "indexed": true,
          "name": "owner",
          "type": "address"
        },
        {
          "indexed": true,
          "name": "approved",
          "type": "address"
        },
        {
          "indexed": true,
          "name": "tokenId",
          "type": "uint256"
        }
      ],
      "name": "Approval",
      "type": "event"
    },
    {
      "anonymous": false,
      "inputs": [
        {
          "indexed": true,
          "name": "owner",
          "type": "address"
        },
        {
          "indexed": true,
          "name": "operator",
          "type": "address"
        },
        {
          "indexed": false,
          "name": "approved",
          "type": "bool"
        }
      ],
      "name": "ApprovalForAll",
      "type": "event"
    },
    {
      "constant": true,
      "inputs": [
        {
          "name": "owner",
          "type": "address"
        },
        {
          "name": "index",
          "type": "uint256"
        }
      ],
      "name": "tokenOfOwnerByIndex",
      "outputs": [
        {
          "name": "",
          "type": "uint256"
        }
      ],
      "payable": false,
      "stateMutability": "view",
      "type": "function"
    },
    {
      "constant": true,
      "inputs": [],
      "name": "totalSupply",
      "outputs": [
        {
          "name": "",
          "type": "uint256"
        }
      ],
      "payable": false,
      "stateMutability": "view",
      "type": "function"
    },
    {
      "constant": true,
      "inputs": [
        {
          "name": "index",
          "type": "uint256"
        }
      ],
      "name": "tokenByIndex",
      "outputs": [
        {
          "name": "",
          "type": "uint256"
        }
      ],
      "payable": false,
      "stateMutability": "view",
      "type": "function"
    }
  ],
  "bytecode": "0x608060405234801561001057600080fd5b506100437f01ffc9a7000000000000000000000000000000000000000000000000000000006401000000006100ac810204565b6100757f80ac58cd000000000000000000000000000000000000000000000000000000006401000000006100ac810204565b6100a77f780e9d63000000000000000000000000000000000000000000000000000000006401000000006100ac810204565b61017a565b7fffffffff00000000000000000000000000000000000000000000000000000000808216141561013d57604080517f08c379a000000000000000000000000000000000000000000000000000000000815260206004820152601c60248201527f4552433136353a20696e76616c696420696e7465726661636520696400000000604482015290519081900360640190fd5b7fffffffff00000000000000000000000000000000000000000000000000000000166000908152602081905260409020805460ff19166001179055565b6112a4806101896000396000f3fe6080604052600436106100c45763ffffffff7c010000000000000000000000000000000000000000000000000000000060003504166301ffc9a781146100c9578063081812fc14610126578063095ea7b31461016c57806318160ddd146101a757806323b872dd146101ce5780632f745c591461021157806342842e0e1461024a5780634f6ccce71461028d5780636352211e146102b757806370a08231146102e1578063a22cb46514610314578063b88d4fde1461034f578063e985e9c514610422575b600080fd5b3480156100d557600080fd5b50610112600480360360208110156100ec57600080fd5b50357bffffffffffffffffffffffffffffffffffffffffffffffffffffffff191661045d565b604080519115158252519081900360200190f35b34801561013257600080fd5b506101506004803603602081101561014957600080fd5b5035610491565b60408051600160a060020a039092168252519081900360200190f35b34801561017857600080fd5b506101a56004803603604081101561018f57600080fd5b50600160a060020a038135169060200135610534565b005b3480156101b357600080fd5b506101bc6106cc565b60408051918252519081900360200190f35b3480156101da57600080fd5b506101a5600480360360608110156101f157600080fd5b50600160a060020a038135811691602081013590911690604001356106d3565b34801561021d57600080fd5b506101bc6004803603604081101561023457600080fd5b50600160a060020a038135169060200135610769565b34801561025657600080fd5b506101a56004803603606081101561026d57600080fd5b50600160a060020a03813581169160208101359091169060400135610827565b34801561029957600080fd5b506101bc600480360360208110156102b057600080fd5b5035610843565b3480156102c357600080fd5b50610150600480360360208110156102da57600080fd5b50356108e9565b3480156102ed57600080fd5b506101bc6004803603602081101561030457600080fd5b5035600160a060020a0316610984565b34801561032057600080fd5b506101a56004803603604081101561033757600080fd5b50600160a060020a0381351690602001351515610a2d565b34801561035b57600080fd5b506101a56004803603608081101561037257600080fd5b600160a060020a038235811692602081013590911691604082013591908101906080810160608201356401000000008111156103ad57600080fd5b8201836020820111156103bf57600080fd5b803590602001918460018302840111640100000000831117156103e157600080fd5b91908080601f016020809104026020016040519081016040528093929190818152602001838380828437600092019190915250929550610afc945050505050565b34801561042e57600080fd5b506101126004803603604081101561044557600080fd5b50600160a060020a0381358116916020013516610b95565b7bffffffffffffffffffffffffffffffffffffffffffffffffffffffff191660009081526020819052604090205460ff1690565b600061049c82610bc3565b1515610518576040805160e560020a62461bcd02815260206004820152602c60248201527f4552433732313a20617070726f76656420717565727920666f72206e6f6e657860448201527f697374656e7420746f6b656e0000000000000000000000000000000000000000606482015290519081900360840190fd5b50600090815260026020526040902054600160a060020a031690565b600061053f826108e9565b9050600160a060020a0383811690821614156105cb576040805160e560020a62461bcd02815260206004820152602160248201527f4552433732313a20617070726f76616c20746f2063757272656e74206f776e6560448201527f7200000000000000000000000000000000000000000000000000000000000000606482015290519081900360840190fd5b33600160a060020a03821614806105e757506105e78133610b95565b1515610663576040805160e560020a62461bcd02815260206004820152603860248201527f4552433732313a20617070726f76652063616c6c6572206973206e6f74206f7760448201527f6e6572206e6f7220617070726f76656420666f7220616c6c0000000000000000606482015290519081900360840190fd5b600082815260026020526040808220805473ffffffffffffffffffffffffffffffffffffffff1916600160a060020a0387811691821790925591518593918516917f8c5be1e5ebec7d5bd14f71427d1e84f3dd0314c0f7b2291e5b200ac8c7c3b92591a4505050565b6007545b90565b6106dd3382610be0565b1515610759576040805160e560020a62461bcd02815260206004820152603160248201527f4552433732313a207472616e736665722063616c6c6572206973206e6f74206f60448201527f776e6572206e6f7220617070726f766564000000000000000000000000000000606482015290519081900360840190fd5b610764838383610cc5565b505050565b600061077483610984565b82106107f0576040805160e560020a62461bcd02815260206004820152602b60248201527f455243373231456e756d657261626c653a206f776e657220696e646578206f7560448201527f74206f6620626f756e6473000000000000000000000000000000000000000000606482015290519081900360840190fd5b600160a060020a038316600090815260056020526040902080548390811061081457fe5b9060005260206000200154905092915050565b6107648383836020604051908101604052806000815250610afc565b600061084d6106cc565b82106108c9576040805160e560020a62461bcd02815260206004820152602c60248201527f455243373231456e756d657261626c653a20676c6f62616c20696e646578206f60448201527f7574206f6620626f756e64730000000000000000000000000000000000000000606482015290519081900360840190fd5b60078054839081106108d757fe5b90600052602060002001549050919050565b600081815260016020526040812054600160a060020a031680151561097e576040805160e560020a62461bcd02815260206004820152602960248201527f4552433732313a206f776e657220717565727920666f72206e6f6e657869737460448201527f656e7420746f6b656e0000000000000000000000000000000000000000000000606482015290519081900360840190fd5b92915050565b6000600160a060020a0382161515610a0c576040805160e560020a62461bcd02815260206004820152602a60248201527f4552433732313a2062616c616e636520717565727920666f7220746865207a6560448201527f726f206164647265737300000000000000000000000000000000000000000000606482015290519081900360840190fd5b600160a060020a038216600090815260036020526040902061097e90610ce4565b600160a060020a038216331415610a8e576040805160e560020a62461bcd02815260206004820152601960248201527f4552433732313a20617070726f766520746f2063616c6c657200000000000000604482015290519081900360640190fd5b336000818152600460209081526040808320600160a060020a03871680855290835292819020805460ff1916861515908117909155815190815290519293927f17307eab39ab6107e8899845ad3d59bd9653f200f220920489ca2b5937696c31929181900390910190a35050565b610b078484846106d3565b610b1384848484610ce8565b1515610b8f576040805160e560020a62461bcd02815260206004820152603260248201527f4552433732313a207472616e7366657220746f206e6f6e20455243373231526560448201527f63656976657220696d706c656d656e7465720000000000000000000000000000606482015290519081900360840190fd5b50505050565b600160a060020a03918216600090815260046020908152604080832093909416825291909152205460ff1690565b600090815260016020526040902054600160a060020a0316151590565b6000610beb82610bc3565b1515610c67576040805160e560020a62461bcd02815260206004820152602c60248201527f4552433732313a206f70657261746f7220717565727920666f72206e6f6e657860448201527f697374656e7420746f6b656e0000000000000000000000000000000000000000606482015290519081900360840190fd5b6000610c72836108e9565b905080600160a060020a031684600160a060020a03161480610cad575083600160a060020a0316610ca284610491565b600160a060020a0316145b80610cbd5750610cbd8185610b95565b949350505050565b610cd0838383610e64565b610cda8382611034565b610764828261112b565b5490565b6000610cfc84600160a060020a0316611169565b1515610d0a57506001610cbd565b6040517f150b7a020000000000000000000000000000000000000000000000000000000081523360048201818152600160a060020a03888116602485015260448401879052608060648501908152865160848601528651600095928a169463150b7a029490938c938b938b939260a4019060208501908083838e5b83811015610d9d578181015183820152602001610d85565b50505050905090810190601f168015610dca5780820380516001836020036101000a031916815260200191505b5095505050505050602060405180830381600087803b158015610dec57600080fd5b505af1158015610e00573d6000803e3d6000fd5b505050506040513d6020811015610e1657600080fd5b50517bffffffffffffffffffffffffffffffffffffffffffffffffffffffff19167f150b7a020000000000000000000000000000000000000000000000000000000014915050949350505050565b82600160a060020a0316610e77826108e9565b600160a060020a031614610efb576040805160e560020a62461bcd02815260206004820152602960248201527f4552433732313a207472616e73666572206f6620746f6b656e2074686174206960448201527f73206e6f74206f776e0000000000000000000000000000000000000000000000606482015290519081900360840190fd5b600160a060020a0382161515610f80576040805160e560020a62461bcd028152602060048201526024808201527f4552433732313a207472616e7366657220746f20746865207a65726f2061646460448201527f7265737300000000000000000000000000000000000000000000000000000000606482015290519081900360840190fd5b610f8981611171565b600160a060020a0383166000908152600360205260409020610faa906111bb565b600160a060020a0382166000908152600360205260409020610fcb906111d2565b600081815260016020526040808220805473ffffffffffffffffffffffffffffffffffffffff1916600160a060020a0386811691821790925591518493918716917fddf252ad1be2c89b69c2b068fc378daa952ba7f163c4a11628f55a4df523b3ef91a4505050565b600160a060020a03821660009081526005602052604081205461105e90600163ffffffff6111db16565b6000838152600660205260409020549091508082146110fb57600160a060020a038416600090815260056020526040812080548490811061109b57fe5b90600052602060002001549050806005600087600160a060020a0316600160a060020a03168152602001908152602001600020838154811015156110db57fe5b600091825260208083209091019290925591825260069052604090208190555b600160a060020a038416600090815260056020526040902080549061112490600019830161123b565b5050505050565b600160a060020a0390911660009081526005602081815260408084208054868652600684529185208290559282526001810183559183529091200155565b6000903b1190565b600081815260026020526040902054600160a060020a0316156111b8576000818152600260205260409020805473ffffffffffffffffffffffffffffffffffffffff191690555b50565b80546111ce90600163ffffffff6111db16565b9055565b80546001019055565b600082821115611235576040805160e560020a62461bcd02815260206004820152601e60248201527f536166654d6174683a207375627472616374696f6e206f766572666c6f770000604482015290519081900360640190fd5b50900390565b815481835581811115610764576000838152602090206107649181019083016106d091905b808211156112745760008155600101611260565b509056fea165627a7a723058209e402aa11ee5cbf5d21bb86e249c0ad067bb62e7afc23116d6e8445f9b54f7b80029",
  "source": "pragma solidity ^0.5.0;\n\nimport \"./IERC721Enumerable.sol\";\nimport \"./ERC721.sol\";\nimport \"../../introspection/ERC165.sol\";\n\n/**\n * @title ERC-721 Non-Fungible Token with optional enumeration extension logic\n * @dev See https://eips.ethereum.org/EIPS/eip-721\n */\ncontract ERC721Enumerable is ERC165, ERC721, IERC721Enumerable {\n    // Mapping from owner to list of owned token IDs\n    mapping(address => uint256[]) private _ownedTokens;\n\n    // Mapping from token ID to index of the owner tokens list\n    mapping(uint256 => uint256) private _ownedTokensIndex;\n\n    // Array with all token ids, used for enumeration\n    uint256[] private _allTokens;\n\n    // Mapping from token id to position in the allTokens array\n    mapping(uint256 => uint256) private _allTokensIndex;\n\n    /*\n     *     bytes4(keccak256('totalSupply()')) == 0x18160ddd\n     *     bytes4(keccak256('tokenOfOwnerByIndex(address,uint256)')) == 0x2f745c59\n     *     bytes4(keccak256('tokenByIndex(uint256)')) == 0x4f6ccce7\n     *\n     *     => 0x18160ddd ^ 0x2f745c59 ^ 0x4f6ccce7 == 0x780e9d63\n     */\n    bytes4 private constant _INTERFACE_ID_ERC721_ENUMERABLE = 0x780e9d63;\n\n    /**\n     * @dev Constructor function.\n     */\n    constructor () public {\n        // register the supported interface to conform to ERC721Enumerable via ERC165\n        _registerInterface(_INTERFACE_ID_ERC721_ENUMERABLE);\n    }\n\n    /**\n     * @dev Gets the token ID at a given index of the tokens list of the requested owner.\n     * @param owner address owning the tokens list to be accessed\n     * @param index uint256 representing the index to be accessed of the requested tokens list\n     * @return uint256 token ID at the given index of the tokens list owned by the requested address\n     */\n    function tokenOfOwnerByIndex(address owner, uint256 index) public view returns (uint256) {\n        require(index < balanceOf(owner), \"ERC721Enumerable: owner index out of bounds\");\n        return _ownedTokens[owner][index];\n    }\n\n    /**\n     * @dev Gets the total amount of tokens stored by the contract.\n     * @return uint256 representing the total amount of tokens\n     */\n    function totalSupply() public view returns (uint256) {\n        return _allTokens.length;\n    }\n\n    /**\n     * @dev Gets the token ID at a given index of all the tokens in this contract\n     * Reverts if the index is greater or equal to the total number of tokens.\n     * @param index uint256 representing the index to be accessed of the tokens list\n     * @return uint256 token ID at the given index of the tokens list\n     */\n    function tokenByIndex(uint256 index) public view returns (uint256) {\n        require(index < totalSupply(), \"ERC721Enumerable: global index out of bounds\");\n        return _allTokens[index];\n    }\n\n    /**\n     * @dev Internal function to transfer ownership of a given token ID to another address.\n     * As opposed to transferFrom, this imposes no restrictions on msg.sender.\n     * @param from current owner of the token\n     * @param to address to receive the ownership of the given token ID\n     * @param tokenId uint256 ID of the token to be transferred\n     */\n    function _transferFrom(address from, address to, uint256 tokenId) internal {\n        super._transferFrom(from, to, tokenId);\n\n        _removeTokenFromOwnerEnumeration(from, tokenId);\n\n        _addTokenToOwnerEnumeration(to, tokenId);\n    }\n\n    /**\n     * @dev Internal function to mint a new token.\n     * Reverts if the given token ID already exists.\n     * @param to address the beneficiary that will own the minted token\n     * @param tokenId uint256 ID of the token to be minted\n     */\n    function _mint(address to, uint256 tokenId) internal {\n        super._mint(to, tokenId);\n\n        _addTokenToOwnerEnumeration(to, tokenId);\n\n        _addTokenToAllTokensEnumeration(tokenId);\n    }\n\n    /**\n     * @dev Internal function to burn a specific token.\n     * Reverts if the token does not exist.\n     * Deprecated, use _burn(uint256) instead.\n     * @param owner owner of the token to burn\n     * @param tokenId uint256 ID of the token being burned\n     */\n    function _burn(address owner, uint256 tokenId) internal {\n        super._burn(owner, tokenId);\n\n        _removeTokenFromOwnerEnumeration(owner, tokenId);\n        // Since tokenId will be deleted, we can clear its slot in _ownedTokensIndex to trigger a gas refund\n        _ownedTokensIndex[tokenId] = 0;\n\n        _removeTokenFromAllTokensEnumeration(tokenId);\n    }\n\n    /**\n     * @dev Gets the list of token IDs of the requested owner.\n     * @param owner address owning the tokens\n     * @return uint256[] List of token IDs owned by the requested address\n     */\n    function _tokensOfOwner(address owner) internal view returns (uint256[] storage) {\n        return _ownedTokens[owner];\n    }\n\n    /**\n     * @dev Private function to add a token to this extension's ownership-tracking data structures.\n     * @param to address representing the new owner of the given token ID\n     * @param tokenId uint256 ID of the token to be added to the tokens list of the given address\n     */\n    function _addTokenToOwnerEnumeration(address to, uint256 tokenId) private {\n        _ownedTokensIndex[tokenId] = _ownedTokens[to].length;\n        _ownedTokens[to].push(tokenId);\n    }\n\n    /**\n     * @dev Private function to add a token to this extension's token tracking data structures.\n     * @param tokenId uint256 ID of the token to be added to the tokens list\n     */\n    function _addTokenToAllTokensEnumeration(uint256 tokenId) private {\n        _allTokensIndex[tokenId] = _allTokens.length;\n        _allTokens.push(tokenId);\n    }\n\n    /**\n     * @dev Private function to remove a token from this extension's ownership-tracking data structures. Note that\n     * while the token is not assigned a new owner, the _ownedTokensIndex mapping is _not_ updated: this allows for\n     * gas optimizations e.g. when performing a transfer operation (avoiding double writes).\n     * This has O(1) time complexity, but alters the order of the _ownedTokens array.\n     * @param from address representing the previous owner of the given token ID\n     * @param tokenId uint256 ID of the token to be removed from the tokens list of the given address\n     */\n    function _removeTokenFromOwnerEnumeration(address from, uint256 tokenId) private {\n        // To prevent a gap in from's tokens array, we store the last token in the index of the token to delete, and\n        // then delete the last slot (swap and pop).\n\n        uint256 lastTokenIndex = _ownedTokens[from].length.sub(1);\n        uint256 tokenIndex = _ownedTokensIndex[tokenId];\n\n        // When the token to delete is the last token, the swap operation is unnecessary\n        if (tokenIndex != lastTokenIndex) {\n            uint256 lastTokenId = _ownedTokens[from][lastTokenIndex];\n\n            _ownedTokens[from][tokenIndex] = lastTokenId; // Move the last token to the slot of the to-delete token\n            _ownedTokensIndex[lastTokenId] = tokenIndex; // Update the moved token's index\n        }\n\n        // This also deletes the contents at the last position of the array\n        _ownedTokens[from].length--;\n\n        // Note that _ownedTokensIndex[tokenId] hasn't been cleared: it still points to the old slot (now occupied by\n        // lastTokenId, or just over the end of the array if the token was the last one).\n    }\n\n    /**\n     * @dev Private function to remove a token from this extension's token tracking data structures.\n     * This has O(1) time complexity, but alters the order of the _allTokens array.\n     * @param tokenId uint256 ID of the token to be removed from the tokens list\n     */\n    function _removeTokenFromAllTokensEnumeration(uint256 tokenId) private {\n        // To prevent a gap in the tokens array, we store the last token in the index of the token to delete, and\n        // then delete the last slot (swap and pop).\n\n        uint256 lastTokenIndex = _allTokens.length.sub(1);\n        uint256 tokenIndex = _allTokensIndex[tokenId];\n\n        // When the token to delete is the last token, the swap operation is unnecessary. However, since this occurs so\n        // rarely (when the last minted token is burnt) that we still do the swap here to avoid the gas cost of adding\n        // an 'if' statement (like in _removeTokenFromOwnerEnumeration)\n        uint256 lastTokenId = _allTokens[lastTokenIndex];\n\n        _allTokens[tokenIndex] = lastTokenId; // Move the last token to the slot of the to-delete token\n        _allTokensIndex[lastTokenId] = tokenIndex; // Update the moved token's index\n\n        // This also deletes the contents at the last position of the array\n        _allTokens.length--;\n        _allTokensIndex[tokenId] = 0;\n    }\n}\n",
  "sourcePath": "openzeppelin-solidity\\contracts\\token\\ERC721\\ERC721Enumerable.sol",
  "compiler": {
    "name": "solc",
    "version": "0.5.0+commit.1d4f565a.Emscripten.clang"
  },
  "schemaVersion": "3.0.3",
  "updatedAt": "2019-06-27T06:17:48.444Z",
  "devdoc": {
    "details": "See https://eips.ethereum.org/EIPS/eip-721",
    "methods": {
      "approve(address,uint256)": {
        "details": "Approves another address to transfer the given token ID The zero address indicates there is no approved address. There can only be one approved address per token at a given time. Can only be called by the token owner or an approved operator.",
        "params": {
          "to": "address to be approved for the given token ID",
          "tokenId": "uint256 ID of the token to be approved"
        }
      },
      "balanceOf(address)": {
        "details": "Gets the balance of the specified address.",
        "params": {
          "owner": "address to query the balance of"
        },
        "return": "uint256 representing the amount owned by the passed address"
      },
      "constructor": {
        "details": "Constructor function."
      },
      "getApproved(uint256)": {
        "details": "Gets the approved address for a token ID, or zero if no address set Reverts if the token ID does not exist.",
        "params": {
          "tokenId": "uint256 ID of the token to query the approval of"
        },
        "return": "address currently approved for the given token ID"
      },
      "isApprovedForAll(address,address)": {
        "details": "Tells whether an operator is approved by a given owner.",
        "params": {
          "operator": "operator address which you want to query the approval of",
          "owner": "owner address which you want to query the approval of"
        },
        "return": "bool whether the given operator is approved by the given owner"
      },
      "ownerOf(uint256)": {
        "details": "Gets the owner of the specified token ID.",
        "params": {
          "tokenId": "uint256 ID of the token to query the owner of"
        },
        "return": "address currently marked as the owner of the given token ID"
      },
      "safeTransferFrom(address,address,uint256)": {
        "details": "Safely transfers the ownership of a given token ID to another address If the target address is a contract, it must implement `onERC721Received`, which is called upon a safe transfer, and return the magic value `bytes4(keccak256(\"onERC721Received(address,address,uint256,bytes)\"))`; otherwise, the transfer is reverted. Requires the msg.sender to be the owner, approved, or operator",
        "params": {
          "from": "current owner of the token",
          "to": "address to receive the ownership of the given token ID",
          "tokenId": "uint256 ID of the token to be transferred"
        }
      },
      "safeTransferFrom(address,address,uint256,bytes)": {
        "details": "Safely transfers the ownership of a given token ID to another address If the target address is a contract, it must implement `onERC721Received`, which is called upon a safe transfer, and return the magic value `bytes4(keccak256(\"onERC721Received(address,address,uint256,bytes)\"))`; otherwise, the transfer is reverted. Requires the msg.sender to be the owner, approved, or operator",
        "params": {
          "_data": "bytes data to send along with a safe transfer check",
          "from": "current owner of the token",
          "to": "address to receive the ownership of the given token ID",
          "tokenId": "uint256 ID of the token to be transferred"
        }
      },
      "setApprovalForAll(address,bool)": {
        "details": "Sets or unsets the approval of a given operator An operator is allowed to transfer all tokens of the sender on their behalf.",
        "params": {
          "approved": "representing the status of the approval to be set",
          "to": "operator address to set the approval"
        }
      },
      "supportsInterface(bytes4)": {
        "details": "See `IERC165.supportsInterface`.     * Time complexity O(1), guaranteed to always use less than 30 000 gas."
      },
      "tokenByIndex(uint256)": {
        "details": "Gets the token ID at a given index of all the tokens in this contract Reverts if the index is greater or equal to the total number of tokens.",
        "params": {
          "index": "uint256 representing the index to be accessed of the tokens list"
        },
        "return": "uint256 token ID at the given index of the tokens list"
      },
      "tokenOfOwnerByIndex(address,uint256)": {
        "details": "Gets the token ID at a given index of the tokens list of the requested owner.",
        "params": {
          "index": "uint256 representing the index to be accessed of the requested tokens list",
          "owner": "address owning the tokens list to be accessed"
        },
        "return": "uint256 token ID at the given index of the tokens list owned by the requested address"
      },
      "totalSupply()": {
        "details": "Gets the total amount of tokens stored by the contract.",
        "return": "uint256 representing the total amount of tokens"
      },
      "transferFrom(address,address,uint256)": {
        "details": "Transfers the ownership of a given token ID to another address. Usage of this method is discouraged, use `safeTransferFrom` whenever possible. Requires the msg.sender to be the owner, approved, or operator.",
        "params": {
          "from": "current owner of the token",
          "to": "address to receive the ownership of the given token ID",
          "tokenId": "uint256 ID of the token to be transferred"
        }
      }
    },
    "title": "ERC-721 Non-Fungible Token with optional enumeration extension logic"
  },
  "userdoc": {
    "methods": {}
  }
}