{
  "contractName": "Token",
  "abi": [
    {
      "constant": true,
      "inputs": [],
      "name": "name",
      "outputs": [
        {
          "name": "",
          "type": "string"
        }
      ],
      "payable": false,
      "stateMutability": "view",
      "type": "function"
    },
    {
      "constant": true,
      "inputs": [],
      "name": "totalSupply",
      "outputs": [
        {
          "name": "",
          "type": "uint256"
        }
      ],
      "payable": false,
      "stateMutability": "view",
      "type": "function"
    },
    {
      "constant": true,
      "inputs": [],
      "name": "decimals",
      "outputs": [
        {
          "name": "",
          "type": "uint8"
        }
      ],
      "payable": false,
      "stateMutability": "view",
      "type": "function"
    },
    {
      "constant": true,
      "inputs": [],
      "name": "symbol",
      "outputs": [
        {
          "name": "",
          "type": "string"
        }
      ],
      "payable": false,
      "stateMutability": "view",
      "type": "function"
    },
    {
      "payable": true,
      "stateMutability": "payable",
      "type": "fallback"
    },
    {
      "anonymous": false,
      "inputs": [
        {
          "indexed": true,
          "name": "_from",
          "type": "address"
        },
        {
          "indexed": true,
          "name": "_to",
          "type": "address"
        },
        {
          "indexed": false,
          "name": "_value",
          "type": "uint256"
        }
      ],
      "name": "Transfer",
      "type": "event"
    },
    {
      "anonymous": false,
      "inputs": [
        {
          "indexed": true,
          "name": "_owner",
          "type": "address"
        },
        {
          "indexed": true,
          "name": "_spender",
          "type": "address"
        },
        {
          "indexed": false,
          "name": "_value",
          "type": "uint256"
        }
      ],
      "name": "Approval",
      "type": "event"
    },
    {
      "constant": false,
      "inputs": [],
      "name": "Reparation_Coin",
      "outputs": [],
      "payable": false,
      "stateMutability": "nonpayable",
      "type": "function"
    },
    {
      "constant": true,
      "inputs": [
        {
          "name": "_owner",
          "type": "address"
        }
      ],
      "name": "balanceOf",
      "outputs": [
        {
          "name": "balance",
          "type": "uint256"
        }
      ],
      "payable": false,
      "stateMutability": "view",
      "type": "function"
    },
    {
      "constant": false,
      "inputs": [
        {
          "name": "_to",
          "type": "address"
        },
        {
          "name": "_value",
          "type": "uint256"
        }
      ],
      "name": "transfer",
      "outputs": [
        {
          "name": "success",
          "type": "bool"
        }
      ],
      "payable": false,
      "stateMutability": "nonpayable",
      "type": "function"
    },
    {
      "constant": false,
      "inputs": [
        {
          "name": "_from",
          "type": "address"
        },
        {
          "name": "_to",
          "type": "address"
        },
        {
          "name": "_value",
          "type": "uint256"
        }
      ],
      "name": "transferFrom",
      "outputs": [
        {
          "name": "success",
          "type": "bool"
        }
      ],
      "payable": false,
      "stateMutability": "nonpayable",
      "type": "function"
    },
    {
      "constant": false,
      "inputs": [
        {
          "name": "_spender",
          "type": "address"
        },
        {
          "name": "_value",
          "type": "uint256"
        }
      ],
      "name": "approve",
      "outputs": [
        {
          "name": "success",
          "type": "bool"
        }
      ],
      "payable": false,
      "stateMutability": "nonpayable",
      "type": "function"
    },
    {
      "constant": true,
      "inputs": [
        {
          "name": "_owner",
          "type": "address"
        },
        {
          "name": "_spender",
          "type": "address"
        }
      ],
      "name": "allowance",
      "outputs": [
        {
          "name": "remaining",
          "type": "uint256"
        }
      ],
      "payable": false,
      "stateMutability": "view",
      "type": "function"
    }
  ],
  "bytecode": "0x608060405234801561001057600080fd5b506108f5806100206000396000f3fe6080604052600436106100a35763ffffffff7c010000000000000000000000000000000000000000000000000000000060003504166306fdde0381146100a8578063095ea7b31461013257806318160ddd1461017f57806323b872dd146101a6578063313ce567146101e957806352a2589a1461021457806370a082311461022b57806395d89b411461025e578063a9059cbb14610273578063dd62ed3e146102ac575b600080fd5b3480156100b457600080fd5b506100bd6102e7565b6040805160208082528351818301528351919283929083019185019080838360005b838110156100f75781810151838201526020016100df565b50505050905090810190601f1680156101245780820380516001836020036101000a031916815260200191505b509250505060405180910390f35b34801561013e57600080fd5b5061016b6004803603604081101561015557600080fd5b50600160a060020a038135169060200135610374565b604080519115158252519081900360200190f35b34801561018b57600080fd5b506101946103da565b60408051918252519081900360200190f35b3480156101b257600080fd5b5061016b600480360360608110156101c957600080fd5b50600160a060020a038135811691602081013590911690604001356103e0565b3480156101f557600080fd5b506101fe6104eb565b6040805160ff9092168252519081900360200190f35b34801561022057600080fd5b506102296104f4565b005b34801561023757600080fd5b506101946004803603602081101561024e57600080fd5b5035600160a060020a03166105eb565b34801561026a57600080fd5b506100bd610606565b34801561027f57600080fd5b5061016b6004803603604081101561029657600080fd5b50600160a060020a038135169060200135610661565b3480156102b857600080fd5b50610194600480360360408110156102cf57600080fd5b50600160a060020a0381358116916020013516610711565b60018054604080516020600284861615610100026000190190941693909304601f8101849004840282018401909252818152929183018282801561036c5780601f106103415761010080835404028352916020019161036c565b820191906000526020600020905b81548152906001019060200180831161034f57829003601f168201915b505050505081565b336000818152600560209081526040808320600160a060020a038716808552908352818420869055815186815291519394909390927f8c5be1e5ebec7d5bd14f71427d1e84f3dd0314c0f7b2291e5b200ac8c7c3b925928290030190a350600192915050565b60035481565b600160a060020a038316600090815260046020526040812054610409908363ffffffff61073c16565b600160a060020a0385166000908152600460209081526040808320939093556005815282822033835290522054610446908363ffffffff61073c16565b600160a060020a03808616600090815260056020908152604080832033845282528083209490945591861681526004909152205461048a908363ffffffff6107b316565b600160a060020a0380851660008181526004602090815260409182902094909455805186815290519193928816927fddf252ad1be2c89b69c2b068fc378daa952ba7f163c4a11628f55a4df523b3ef92918290030190a35060019392505050565b60025460ff1681565b6040805180820190915260028082527f524300000000000000000000000000000000000000000000000000000000000060209092019182526105389160009161082e565b5060408051808201909152600f8082527f52657061726174696f6e5f436f696e0000000000000000000000000000000000602090920191825261057d9160019161082e565b5060028054601260ff19909116179081905560ff16600a0a633b9aca00026003819055336000818152600460209081526040808320859055805194855251929391927fddf252ad1be2c89b69c2b068fc378daa952ba7f163c4a11628f55a4df523b3ef9281900390910190a3565b600160a060020a031660009081526004602052604090205490565b6000805460408051602060026001851615610100026000190190941693909304601f8101849004840282018401909252818152929183018282801561036c5780601f106103415761010080835404028352916020019161036c565b33600090815260046020526040812054610681908363ffffffff61073c16565b3360009081526004602052604080822092909255600160a060020a038516815220546106b3908363ffffffff6107b316565b600160a060020a0384166000818152600460209081526040918290209390935580518581529051919233927fddf252ad1be2c89b69c2b068fc378daa952ba7f163c4a11628f55a4df523b3ef9281900390910190a350600192915050565b600160a060020a03918216600090815260056020908152604080832093909416825291909152205490565b6000828211156107ad57604080517f08c379a000000000000000000000000000000000000000000000000000000000815260206004820152601e60248201527f536166654d6174683a207375627472616374696f6e206f766572666c6f770000604482015290519081900360640190fd5b50900390565b60008282018381101561082757604080517f08c379a000000000000000000000000000000000000000000000000000000000815260206004820152601b60248201527f536166654d6174683a206164646974696f6e206f766572666c6f770000000000604482015290519081900360640190fd5b9392505050565b828054600181600116156101000203166002900490600052602060002090601f016020900481019282601f1061086f57805160ff191683800117855561089c565b8280016001018555821561089c579182015b8281111561089c578251825591602001919060010190610881565b506108a89291506108ac565b5090565b6108c691905b808211156108a857600081556001016108b2565b9056fea165627a7a72305820c71944715391e7eda7479d8e4b2a0472780f8f0f0638cdf1c3811ad8e030e05f0029",
  "source": "pragma solidity ^0.5.0;\r\n \r\nimport 'openzeppelin-solidity/contracts/token/ERC721/ERC721Full.sol';\r\nimport 'openzeppelin-solidity/contracts/token/ERC721/ERC721Mintable.sol';\r\n \r\ncontract MyNFT is ERC721Full, ERC721Mintable {\r\n  constructor() ERC721Full(\"MyNFT\", \"MNFT\") public {\r\n  }\r\n}\r\ncontract Token {\r\n    using SafeMath for uint;\r\n\r\n    event Transfer(\r\n        address indexed _from,\r\n        address indexed _to,\r\n        uint256 _value\r\n    );\r\n\r\n    event Approval(\r\n        address indexed _owner,\r\n        address indexed _spender,\r\n        uint256 _value\r\n    );\r\n\r\n    string public symbol;\r\n    string public name;\r\n    uint8 public decimals;\r\n    uint public totalSupply;\r\n\r\n    mapping(address => uint) balances;\r\n    mapping(address => mapping(address => uint)) allowed;\r\n\r\n    /**\r\n     * Constructs the Token contract and gives all of the supply to the address\r\n     *     that deployed it. The fixed supply is 1 billion tokens with up to 18\r\n     *     decimal places.\r\n     */\r\n    function Reparation_Coin() public {\r\n        symbol = 'RC';\r\n        name = 'Reparation_Coin';\r\n        decimals = 18;\r\n        totalSupply = 1000000000 * 10**uint(decimals);\r\n        balances[msg.sender] = totalSupply;\r\n        emit Transfer(address(0), msg.sender, totalSupply);\r\n    }\r\n\r\n    /**\r\n     * @dev Fallback function\r\n     */\r\n    function() external payable { revert(); }\r\n\r\n    /**\r\n     * Gets the token balance of any wallet.\r\n     * @param _owner Wallet address of the returned token balance.\r\n     * @return The balance of tokens in the wallet.\r\n     */\r\n    function balanceOf(address _owner)\r\n        public\r\n        view\r\n        returns (uint balance)\r\n    {\r\n        return balances[_owner];\r\n    }\r\n\r\n    /**\r\n     * Transfers tokens from the sender's wallet to the specified `_to` wallet.\r\n     * @param _to Address of the transfer's recipient.\r\n     * @param _value Number of tokens to transfer.\r\n     * @return True if the transfer succeeded, false if not.\r\n     */\r\n    function transfer(address _to, uint _value) public returns (bool success) {\r\n        balances[msg.sender] = balances[msg.sender].sub(_value);\r\n        balances[_to] = balances[_to].add(_value);\r\n        emit Transfer(msg.sender, _to, _value);\r\n        return true;\r\n    }\r\n\r\n    /**\r\n     * Transfer tokens from any wallet to the `_to` wallet. This only works if\r\n     *     the `_from` wallet has already allocated tokens for the caller keyset\r\n     *     using `approve`. From wallet must have sufficient balance to\r\n     *     transfer. Caller must have sufficient allowance to transfer.\r\n     * @param _from Wallet address that tokens are withdrawn from.\r\n     * @param _to Wallet address that tokens are deposited to.\r\n     * @param _value Number of tokens transacted.\r\n     * @return True if the transfer succeeded, false if not.\r\n     */\r\n    function transferFrom(address _from, address _to, uint _value)\r\n        public\r\n        returns (bool success)\r\n    {\r\n        balances[_from] = balances[_from].sub(_value);\r\n        allowed[_from][msg.sender] = allowed[_from][msg.sender].sub(_value);\r\n        balances[_to] = balances[_to].add(_value);\r\n        emit Transfer(_from, _to, _value);\r\n        return true;\r\n    }\r\n\r\n    /**\r\n     * Sender allows another wallet to `transferFrom` tokens from their wallet.\r\n     * @param _spender Address of `transferFrom` recipient.\r\n     * @param _value Number of tokens to `transferFrom`.\r\n     * @return True if the approval succeeded, false if not.\r\n     */\r\n    function approve(address _spender, uint _value)\r\n        public\r\n        returns (bool success)\r\n    {\r\n        allowed[msg.sender][_spender] = _value;\r\n        emit Approval(msg.sender, _spender, _value);\r\n        return true;\r\n    }\r\n\r\n    /**\r\n     * Gets the number of tokens that a `_owner` has approved for a _spender\r\n     *     to `transferFrom`.\r\n     * @param _owner Wallet address that tokens can be withdrawn from.\r\n     * @param _spender Wallet address that tokens can be deposited to.\r\n     * @return The number of tokens allowed to be transferred.\r\n     */\r\n    function allowance(address _owner, address _spender)\r\n        public\r\n        view\r\n        returns (uint remaining)\r\n    {\r\n        return allowed[_owner][_spender];\r\n    }\r\n}",
  "sourcePath": "C:/Users/rickrichi/Desktop/reparation_coin/contracts/reparation_coin.sol",
  "compiler": {
    "name": "solc",
    "version": "0.5.0+commit.1d4f565a.Emscripten.clang"
  },
  "schemaVersion": "3.0.3",
  "updatedAt": "2019-06-27T06:17:48.437Z",
  "devdoc": {
    "methods": {
      "allowance(address,address)": {
        "params": {
          "_owner": "Wallet address that tokens can be withdrawn from.\r",
          "_spender": "Wallet address that tokens can be deposited to.\r"
        },
        "return": "The number of tokens allowed to be transferred.\r"
      },
      "approve(address,uint256)": {
        "params": {
          "_spender": "Address of `transferFrom` recipient.\r",
          "_value": "Number of tokens to `transferFrom`.\r"
        },
        "return": "True if the approval succeeded, false if not.\r"
      },
      "balanceOf(address)": {
        "params": {
          "_owner": "Wallet address of the returned token balance.\r"
        },
        "return": "The balance of tokens in the wallet.\r"
      },
      "transfer(address,uint256)": {
        "params": {
          "_to": "Address of the transfer's recipient.\r",
          "_value": "Number of tokens to transfer.\r"
        },
        "return": "True if the transfer succeeded, false if not.\r"
      },
      "transferFrom(address,address,uint256)": {
        "params": {
          "_from": "Wallet address that tokens are withdrawn from.\r",
          "_to": "Wallet address that tokens are deposited to.\r",
          "_value": "Number of tokens transacted.\r"
        },
        "return": "True if the transfer succeeded, false if not.\r"
      }
    }
  },
  "userdoc": {
    "methods": {
      "Reparation_Coin()": {
        "notice": "Constructs the Token contract and gives all of the supply to the address\r    that deployed it. The fixed supply is 1 billion tokens with up to 18\r    decimal places.\r"
      },
      "allowance(address,address)": {
        "notice": "Gets the number of tokens that a `_owner` has approved for a _spender\r    to `transferFrom`.\r"
      },
      "approve(address,uint256)": {
        "notice": "Sender allows another wallet to `transferFrom` tokens from their wallet.\r"
      },
      "balanceOf(address)": {
        "notice": "Gets the token balance of any wallet.\r"
      },
      "transfer(address,uint256)": {
        "notice": "Transfers tokens from the sender's wallet to the specified `_to` wallet.\r"
      },
      "transferFrom(address,address,uint256)": {
        "notice": "Transfer tokens from any wallet to the `_to` wallet. This only works if\r    the `_from` wallet has already allocated tokens for the caller keyset\r    using `approve`. From wallet must have sufficient balance to\r    transfer. Caller must have sufficient allowance to transfer.\r"
      }
    }
  }
}